:020000040000fa
:020000040004f6
:10000000f8ff00201d180400bf1604006f1a04003a
:1000100000000000000000000000000000000000e0
:10002000000000000000000000000000bb11040000
:100030000000000000000000bb110400511d04007e
:1000400000000000000000000000000000000000b0
:1000500000000000031e040000000000000000007b
:100060000000000000000000000000000000000090
:10007000000000000000000000000000ab100400c1
:100080000000000000000000000000000000000070
:100090000000000000000000000000000000000060
:1000a0000000000000000000000000000000000050
:1000b0000000000000000000000000000000000040
:1000c0000000000000000000000000000000000030
:1000d0000000000000000000000000000000000020
:1000e000000000000000000000000000bb11040040
:1000f000bb110400bb110400bb1104000000000090
:1001000000000000000000000000000000000000ef
:1001100000000000000000000000000000000000df
:100120000000000000000000bb11040000000000ff
:100130000000000000000000bb110400bb1104001f
:1001400000000000000000000000000000000000af
:0c015000000000000000000000000000a3
:020000040000fa
:020000040004f6
:10015c00f8b5c046f8bc08bc9e467047951a04001a
:10016c00f8b5c046f8bc08bc9e467047711a04002e
:020000040000fa
:020000040004f6
:08017c00140300000100000063
:020000040000fa
:020000040004f6
:100184000023f0b51600b1b0039007910493079dc6
:100194002b78002b00d1cbe001235b420c9310abf6
:1001a40000240e9380230b940d940f932b5d0bb1bd
:1001b400252b2dd134b12900220003982d1901f0eb
:1001c400effc0795079b1a78252a00d0a5e0013398
:1001d4001800002105930793243a03782b2b23d08e
:1001e4002bd8202b23d0232b24d001b107902a2bea
:1001f4002bd001f019fc01250d900020079a110065
:100204000b780132303b092b63d968b307912be09b
:100214000134cbe701230b990b430b9311000130fd
:10022400dbe702230b99f7e704230b99f4e7082390
:100234000b99f1e710230b99eee72d2bead0302b25
:10024400efd00029d5d00790d3e7336801301a1dc9
:100254001b68079032600d93002b05da01220b997d
:100264005b424a400b920d930b9bda0702d50222a4
:1002740093430b93079b1a782e2a0dd100270c97d2
:100284005a785d1c07952a2a25d1023307933368cf
:100294001a1d1b6832600c9307a801f025fd079d09
:1002a4000700287801f038ff252800d1d1e0613813
:1002b400172800d9d7e001f003ff1fd6b23ea2a24f
:1002c400a2d63ed6d6d6d6985e7dd6d6c2d64ed641
:1002d400d66d280093e7280001f0a6fb01210c90bd
:1002e4002a0013780135303b092b03d9002fd3d0d2
:1002f4000792d1e70f00f3e73200390008a801f0b4
:1003040088fc002800d177e06b1c079303982b78b6
:1003140008aa0ba901f01fff2418049b1c19a3426f
:1003240000dcabe04f22564b1a6001235b4204937e
:10033400049831b0f0bd33000122390008a800f060
:10034400f3fd002858d00135039808aa0ba9079596
:1003540000f051fee0e733000022390008a800f065
:10036400e3fd002848d00135039808aa0ba9079596
:1003740001f027fad0e733000022390008a800f082
:10038400d3fdc8b30135039808aa0ba9079501f05a
:10039400e0fec1e733000022390008a800f0c4fde4
:1003a40050b36b1c07932b78039808aa0ba901f090
:1003b400d2feb1e733000022f02108a800f0b4fd1a
:1003c400d0b1089b099a0135134307955bb92d48b1
:1003d40001f018fe02000b9b2a4900930d9b039821
:1003e40000f028ff98e77823dee7049b39001a1908
:1003f40008a8330000f096ff013507958de7320019
:10040400390008a801f005fc0028f5d06b1c0793ff
:1004140003982b7808aa0ba901f09dfe7ce7802f96
:10042400ead1336801351a1d1b68326008aa1370bb
:100434000123079503980ba901f08ffe6ce7802f29
:10044400dad132680135131d336012680023079531
:10045400f0e7802fd0d101220b9b013500930d9b37
:1004640007950949bbe7059b0122079300235242e4
:100474000c920b930d9300930232f2e7049486e6f8
:0c04840014840020342104003a210400fc
:020000040000fa
:020000040004f6
:10049000f0b585b005000c0016001700039301931a
:1004a00000900291002b00d0c8e010008a424bd986
:1004b00001f05afb020060b12100202381401b1a89
:1004c00087402800d84003000b4302932b00934041
:1004d0000093029b390cb3fbf1f00d00040045437f
:1004e000beb274435d1b009b2d041b0c1d43030017
:1004f000ac4207d9ed19013baf4203d8ac4201d958
:10050000831eed192d1bb5fbf1f46846614366436c
:10051000691a058809040d432100ae4207d9ed1977
:100520000139af4203d8ae4201d9a11eed19ac1b6f
:1005300018040a9b084323b1d4401c6000230a9a84
:100540005360019905b0f0bd01f00efb0200a8bb9d
:100550000123a41b0193390cb4fbf1f50b002e0011
:100560006b43b8b24643e41a009b24041b0cac4610
:100570001c43a6420ad90123e4195b429c44a742ca
:1005800004d8a64202d9ab1e9c46e419a41bb4fbb6
:10059000f1f56943641a6946684323040c8829000d
:1005a0001c43a04207d9e4190139a74203d8a0424d
:1005b00001d9a91ee4196346241ab9e7202187400e
:1005c000091a230084400098cb40c8400100214311
:1005d0008c4600993c0c9140b3fbf4f5009121004e
:1005e00069432e005b1a6146b8b24643090c1b04ee
:1005f0000b4329009e4207d9db1901399f4203d8da
:100600009e4201d9a91edb199b1bb3fbf4f56c4379
:100610001b1b644668431b04a4b22e001c43a0426b
:1006200007d9e419013ea74203d8a04201d9ae1e62
:10063000e41909043143241a01918ce7039b8b428e
:1006400009d90a9b1bb900231800019379e70a9b7b
:1006500018605960f7e7039801f086fa0100c8b9fd
:10066000039ba34201d3ae4209d8ae1bb542ad41b4
:100670000120039b6d42e41a631b029300960a9bc0
:1006800013b9002301935ce7009a0a9b1a60029a4f
:100690005a60f6e720231b1a0093009a039bd74069
:1006a00083401f432300d3402a00864084400098a3
:1006b0008d40c24022433c0c20000295b3fbf4f570
:1006c0009446684301962e001b1a6046bab2564300
:1006d000000c1b04034328009e4207d9db19013894
:1006e0009f4203d89e4201d9a81edb199b1bb3fb76
:1006f000f4f56c431c1b63466a4324049bb22343fa
:100700002c009a4207d9db19013c9f4203d89a4238
:1007100001d9ac1edb199b1a9c466b469d88019b38
:1007200000041a0c2b002043060ca4b2754363434b
:10073000564362431c0c5219a218954202d98024d8
:1007400064023619140c9bb21204a419d318a445e0
:1007500003d30bd1029a9a4208d2019a01389a1a0d
:1007600093429b415b42db19e41a13000a9a002a68
:1007700087d0029a009dd31a6246121b029c9c42ab
:10078000a4416442121b1400cb40ac40ca400a99f9
:0807900023430b600b007be723
:020000040000fa
:020000040004f6
:10079800f0b5c64600b5002001f001f940f68840e2
:1007a800c0f2040001f03efb40f6b840c0f204007d
:1007b80001f038fb40f6c440c0f2040001f032fbff
:1007c80040f6f040c0f2040001f02cfb42f24d016b
:1007d800c0f204010022002001f03efc41f2134166
:1007e800c0f204010022022001f047fa43f200039c
:1007f800c4f2000348f200029a6101f06ffb01f0b5
:100808007dfb48f20002c2f2000243f62401c4f262
:10081800002140f20023002000f0f4fa48f21e46be
:10082800c2f2000609e15b4340f6ff72b3fbf2f344
:1008380042f60002c4f20022126bd20304d442f63c
:100848000002c4f20022136764225a4340f6ff7381
:10085800b2fbf3f240f61c50c0f2040001f05efb5c
:10086800377048f20002c2f2000243f62401c4f2d3
:10087800002140f20023380000f0c4fa013d002da9
:1008880000d1d1e03378002bf8d048f20003c2f24f
:10089800000340f2002298180024198864180233d3
:1008a8008342fad1240a43461b78bbb94ff6ff713d
:1008b80021406d4bcb181a03d21a6c483b00824278
:1008c800b1db4cf6ff70c0f2c50040f6ff73824200
:1008d800a9dc40f65d4392fbf3f3a4e7a3b240f62c
:1008e800c412934220d948f21c43c2f200031b7879
:1008f80023bb48f20843c2f200031a6801321a60a7
:1009080048f21c42c2f200020121117048f2c432be
:10091800c2f2000200211160196840f64850c0f286
:10092800040001f0fbfa09e040f2db52934205d8db
:1009380048f21c43c2f2000300221a7048f208432e
:10094800c2f200031b68002b0fdd48f20843c2f215
:1009580000031b68022b08dc48f2c433c2f2000310
:100968001a6840f2dc539a422fd848f20843c2f280
:1009780000031b68022b3add48f21f43c2f2000352
:1009880000221a7042f60003c4f200231b6bdb033b
:1009980006d442f60003c4f2002340f6ff721a6739
:1009a80048f21f43c2f200031b7873b348f20843ae
:1009b800c2f200031a684ff6ff71214040f69450c6
:1009c800c0f2040001f0aafa4ae748f20843c2f26a
:1009d800000300221a6048f2c433c2f200031a600e
:1009e80040f66850c0f2040001f01cfabde742f678
:1009f8000003c4f200231b6bdb03d1d442f60003cf
:100a0800c4f2002300221a67cae748f20843c2f278
:100a180000031a684ff6ff71214040f6d050c0f22b
:100a2800040001f07bfa1be701f036fa48f21d4397
:100a3800c2f200031b78012b07d04cf2503548f264
:100a48001d48c2f2000800271ce748f21f43c2f203
:100a580000031b78002bf0d048f2c433c2f2000325
:100a68001a6801321a60e8e75efcffffa4f3ffff93
:020000040000fa
:020000040004f6
:100a7800988300201c00000000000000c4830020b0
:100a880004000000000000001c8400200100000099
:100a9800000000000884002004000000000000009e
:100aa8001f84002001000000010000000100000078
:100ab8001d840020020000000000000000800020cb
:100ac8000002000000000000e88300200c00000085
:100ad80000000000b48300201000000000000000a7
:100ae800c8830020200000000000000000820020d1
:100af800c0000000000000000c840020040000007a
:100b080000000000488300205000000000000000a2
:100b1800208400206c000000010000002c840020cc
:100b2800288400202c8400200000000025000000fc
:100b3800c8820020800000000000000000000000c3
:100b4800000000000000000000000000000000009d
:100b58000000000000000000632104000000000005
:100b6800000000000000000000000000e91404007c
:100b7800000000000000000000000000000000006d
:100b88000000000000000000c08200208800000073
:100b980000000000ec84002020000000010000009c
:100ba8000100000003000000000000000000000039
:100bb8000000000000000000000000000084002089
:100bc80000840020080000000000000010840020bd
:100bd80008000000000000008c8400206000000075
:100be80001000000010000000300000000000000f8
:100bf80000000000000000000000000000000000ed
:100c0800651604000000000000000000000000005d
:100c18002b210400732104000000000000000000e4
:100c280000000000000000000000000000000000bc
:100c380000000000000000000000000000000000ac
:100c4800000000000c8500200400000001000000e6
:100c580001000000188400200400000000000000cb
:100c6800f48300200c0000000000000000000000d9
:100c780000000000666666666666666666666666a4
:020000040000fa
:020000040004f6
:100c88000d0a3d3d3d3d3d3d3d3d3d3d3d3d3d3def
:100c98003d3d3d3d3d3d3d3d3d3d3d3d3d3d3d3d7c
:100ca8003d3d3d3d3d3d3d3d3d3d3d3d0d00000053
:100cb80041445641495454454a0d000020202041e2
:100cc80052434849544543545552453a20444d41ae
:100cd800202b20454943202b2050574d20202020f1
:100ce80020202020200d00003d3d3d3d3d3d3d3d67
:100cf8003d3d3d3d3d3d3d3d3d3d3d3d3d3d3d3d1c
:100d08003d3d3d3d3d3d3d3d3d3d3d3d3d3d3d3d0b
:100d18003d3d0d005b4d4f44453a2044494d4d45fe
:100d2800525d204c44523a2025303475207c2050a6
:100d38006f7765723a2025336c7525250d0a0000fa
:100d48000d0a3e3e3e2050554c5345202564204414
:100d580045544543544544203c3c3c0d0a000000a2
:100d68000d0a2121212053454355524954592054f5
:100d7800494d454f5554202d204143434553532059
:100d880044454e494544202121210d005b4d4f44e7
:100d9800453a205345435552455d204c44523a202c
:100da80025303475207c2050756c7365733a202586
:100db80064207c205374617475733a204c4f434b04
:100dc80045440d0a000000005b4d4f44453a20534e
:100dd80045435552455d204c44523a2025303475e0
:100de800207c2050756c7365733a202564207c2024
:100df8005374617475733a20554e4c4f434b4544b8
:040e0800210d0a00ae
:020000040000fa
:020000040004f6
:100e0c00f0b50400000148f2b435c2f20005ac465e
:100e1c006044067bf6b246f20000c4f200103f2795
:100e2c00c55dedb2c4550f37c05d800702d10020ff
:100e3c00002e5cd146f20000c4f200104e260327af
:100e4c008755260148f2b430c2f200003018023f38
:100e5c00077348f2c830c2f20000305a40054dd535
:100e6c00c918300048f2c836c2f20006b4466044d5
:100e7c00416048f2c831c2f200012001415a090513
:100e8c0045d5d218010048f2c830c2f200008446a1
:100e9c0061448a6048f2c832c2f2000221018a5ac7
:100eac009205920fd3409bb248f2c832c2f20002b4
:100ebc00944661444b8046f20003c4f20013402177
:100ecc005a5c022002435a545a6c596c0823134042
:100edc0043f600720a401343013843b946f200024c
:100eec00c4f2001211690133a3400b43136146f2a3
:100efc000003c4f200133f229d54f0bd200148f2c0
:100f0c00c836c2f20006b44660444160b1e7210124
:100f1c0048f2c830c2f20000844661448a60b9e7e6
:020000040000fa
:020000040004f6
:100f2c0010b50400902911dc00207f2927dd8039c1
:100f3c000800102910d801f0bff82f2f3a0f110f0d
:100f4c000f0f230f0f0f0f0f0f0f3a00c02947d0b1
:100f5c00f02945d0a02925d0002010e019683ab11d
:100f6c000a1d1a6000228b5e2360db17636005e0ac
:100f7c00081d18600b689bb223606260012010bdd5
:100f8c00196822b10a1d1a600023cb56ece7081d24
:100f9c0018600b68dbb2efe71968eab10a1d1a603a
:100fac000b68e1e71a68111d19601368dce707206c
:100fbc0019684ab1091881430a0008321a600a6894
:100fcc004b6822606360d9e7ca1d82431100083167
:100fdc00196053681268f4e7081d18600b68cbe7ba
:0e0fec001a68111d1960136823600023bee708
:020000040000fa
:020000040004f6
:100ffa00f0b54b6889b004930b6805000c009c4659
:10100a008e68cf68079310685168cb0f0593002943
:10101a0042da0b000200002150429941049b002b46
:10102a0008db0222634693430793059b13b9079b88
:10103a005a0722d5731e07aa02920a220093019226
:10104a000b000200200000f0a5f9059bcbb12d236f
:10105a0001383b542269079b013a121a3918009346
:10106a002800330000f0e3f86b68db0503d56368fa
:10107a00984200da180009b0f0bd1b07db0ff31a1b
:10108a00d9e7079b5a0702d52b230138e1e71b074b
:10109a00e0d520230138dce7049b002bc1dac6e740
:020000040000fa
:020000040004f6
:1010aa0010b582b00021019146f20003c4f2001388
:1010ba003f229c5ce4b299540f329b5cdbb20193f1
:1010ca00019b02209b070cd546f20003c4f20013d1
:1010da000231995448f2b433c2f2000300221a735f
:1010ea000138019bdb070dd546f20003c4f2001359
:1010fa004e220121995448f2b433c2f2000300226d
:10110a001a73022048f2b433c2f200035b6833b1a7
:10111a0048f2b433c2f2000399685b68984746f212
:0e112a000003c4f200133f229c5402b010bd1b
:020000040000fa
:020000040004f6
:10113800f0b51600040002278269436987b09b1a3c
:1011480003939b19029204910596019302ad3a000c
:101158002900206800f08dfe019b984208d1a36801
:10116800e268a3619a18a2626361300007b0f0bd1b
:1011780000280cda102200236168a3620a43a361e5
:1011880063616260022f12d06b68f61aede7019b6b
:101198001b1a01936b68984202d9c01a0835013f9f
:1011a8002b681b182b606b681b1a6b60cfe71e003f
:0211b800dbe773
:020000040000fa
:020000040004f6
:0211ba00fee74e
:020000040000fa
:020000040004f6
:1011bc001d4af0b514680300200064b10022210020
:1011cc00160010000d68ac460d699c4509d12ab17a
:1011dc00156110310800f0bd2900f3e7124b1d60ba
:1011ec00f7e79c4505d910b10768bc4501d216003c
:1011fc0008000a00002defd10028ecd00500026891
:10120c000169d21a1035102a05d90360eb1819613f
:10121c001900103a1a60844203d1034b196028005c
:0c122c00d9e73161fbe7c04618840020c0
:020000040000fa
:020000040004f6
:10123800f0b589b014000e9a1d0002910123110027
:101248001940019003911a4201d1a5420ad82200ff
:101258000299019800f0a2fca54203d825002800b5
:1012680009b0f0bd2e1b37003200102e00d9102215
:10127800202104a800f018ff0f2f0ed80f22019884
:10128800324004a900f08afc039b002be7d122001e
:101298000299019800f082fce1e71022019804a964
:0812a80000f07cfc103fe7e7b9
:020000040000fa
:020000040004f6
:1012b000f8b5866a04000f00150056b1a36a62698a
:1012c0009b1aab420cd22a0039002000fff734fff2
:1012d00005e000f08dfe03003000002beed0f8bddd
:1012e000002df0d03422a256002a1bdb2b00d2b2f4
:1012f0001e00013bf95c914212d1320039002000fe
:10130000fff71aff8642ead8bf19ae1b3200390038
:10131000606900f0c3fe636928009b196361dee722
:08132000002be5d12e00f1e7de
:020000040000fa
:020000040004f6
:1013280010b50400902911dc00207f291bdd8039cd
:10133800080010290ed800f0c1fe0f0f250d170d5b
:101348000d0d1e0d0d0d0d0d0d0d2500a02903d041
:10135800c02901d0002006e01968081d18600b6834
:1013680023601a60012010bd1968081d18600b68f9
:1013780023601a80f6e71968081d18600b68236057
:101388001a70efe71968081d18600b6823601a6067
:06139800d2175a60e6e7df
:020000040000fa
:020000040004f6
:10139e00f7b5040019000a9ee36867680093336886
:1013ae00100001932369013b1c00002f00da012776
:1013be000022009dea540123089d002c02dce3b1bb
:1013ce002000febd02000a434ab9089aba1a521901
:1013de00002a04dc002df2dd019a9207efd5099b5d
:1013ee00099adb1700f05dfb8c4600991300013c57
:1013fe0030320a55013d6146dfe7102233689343d0
:04140e003360dde783
:020000040000fa
:020000040004f6
:1014120048f21d43c2f200031b7813bb48f21d437e
:10142200c2f2000301221a7048f21f43c2f2000303
:101432001a7043f20003c4f2000348f2000159613a
:1014420048f20843c2f200030021196048f2c43393
:10145200c2f20003196048f21c43c2f200031a7080
:10146200704748f21d43c2f2000300221a7043f291
:0e1472000003c4f2000348f200029a61f0e7a2
:020000040000fa
:020000040004f6
:1014800043f60003c4f2002301221a7043f600025f
:10149000c4f200220121138c0b42fcd146f220033e
:1014a000c0f280031b68190240f200720a409b06da
:1014b0005b0f1a4343f60003c4f200239a8502220d
:1014c0005a7001325a737d329a707f3a1a81002223
:1014d0005a8107229a7143f60002c4f20022138c4b
:0814e0009bb2002bfbd1704709
:020000040000fa
:020000040004f6
:1014e8007fb51600c2680d0013000091591e8b418c
:1014f800f31a019383680400039269460222006884
:10150800029300f0a3fc002808dc182208210240fe
:10151800514062680a43626004b070bd019981421b
:10152800fad2a268431ad3182364e368e2630bb9ba
:101538003000f1e7531ce3631378ad19013d2b70bc
:02154800f6e7c4
:020000040000fa
:020000040004f6
:10154a0010b548f2b432c2f20002002111705160a3
:10155a009160117348f2c830c2f2000046f20003eb
:10156a00c4f20013586348f2d834c2f200049c63f0
:10157a0048f28114c8f281145c613f24195542f67d
:10158a000011c0f28001596440f60911018001215d
:10159a0011704d220231995440f602721a8010bd20
:020000040000fa
:020000040004f6
:1015aa0042f60003c4f2002301221a6042f6000246
:1015ba00c4f20022012193681942fcd142f60003c9
:1015ca00c4f2002341f200021a6000225a615869eb
:1015da0040f60071c4f24001014359610221d96306
:1015ea005a649a64da641a6540f6ff721a6442f61b
:0e15fa000002c4f200229368002bfcd170475f
:020000040000fa
:020000040004f6
:1016080000230e4a10b513600d4a0e4c13600e4aa3
:1016180013600e4a13600e4a13600e4a5362136138
:101628000133936000f06efd00f09bfd0a4b9c4275
:1016380000d310bd08cc9847f8e7c04610840020b6
:101648005483002068010400508300204883002050
:0c1658004c830020588300206c0104002b
:020000040000fa
:020000040004f6
:1016640070b504000d0008b9002070bd43689b06e6
:1016740007d5426983699a4215d80023a362a361fe
:101684006361e36b216c8b4204d201222068591af6
:1016940000f067fd00232364e363002de4d0206899
:1016a40000f052fde1e70022c36a11009847636924
:0a16b400002be2d101204042d7e7ed
:020000040000fa
:020000040004f6
:0216be00fee745
:020000040000fa
:020000040004f6
:1016c00070b516001d00040020224368022e05d1cb
:1016d00000219343c1604360002070bd1342fbd1e1
:1016e00031b905b980352800083000f015f801003f
:1016f00020236268a16013436360e5600a23012e22
:1017000001d001235b42220034321370014be362ab
:08171000e2e7c046b11204003b
:020000040000fa
:020000040004f6
:1017180037b5134d04002b6873b100f00ffc01902e
:1017280001a800f084fc0f230f300199984300f0c2
:1017380041fc50b100232b6004b901340f230f344e
:101748009c4324b90c22074b1a6000203ebd2000a0
:10175800fff730fd0028f9d0031f1c60f6e7c046ec
:081768000c8500201484002010
:020000040000fa
:020000040004f6
:10177000f8b507000e00002017b300f030fa06b3ea
:10178000002541f20002c4f200220424072105e0f2
:10179000906a6b00f8520135ae420cd0137e2342a2
:1017a000fcd0538b0b4207d153680b40012befd079
:1017b000936a7b55efe73500761b73425e41f0b2ca
:0617c000f8bd3500f8e75a
:020000040000fa
:020000040004f6
:1017c600f0b50c004968236887b00500a768e6688d
:1017d6000593002902db02218b43059305a9536873
:1017e600126802910a21200001910097fff7d4fdab
:1017f6002269059b013a121a3118009328003b0012
:10180600fff717fd6b68db0503d56368984200dabe
:06181600180007b0f0bd50
:020000040000fa
:020000040004f6
:10181c0010b541f6b743c0f20403984741f6b743fd
:10182c00c0f20403984700f041fa40f20003c0f202
:10183c0004037f2293434ef60052cef200029360d3
:10184c0041f20963c0f20403984741f6b743c0f272
:10185c000403984741f6b743c0f204039847fef7d8
:04186c0095fffee7ff
:020000040000fa
:020000040004f6
:1018700041f20003c4f2002340f20412c4f2100249
:101880001a600e4a9a81c02292025a6041f2000206
:10189000c4f20022d369002bfcd141f20003c4f250
:1018a00000231a6802210a431a6041f20002c4f2be
:1018b0000022d369002bfcd17047c0462bf6fffff6
:020000040000fa
:020000040004f6
:1018c00070b5104d04002b6863b1002c12da0e4a7b
:1018d0002b6812689b1a6242934208db286804193d
:1018e0002c6006e000f01cfa2b68002bedd10120e3
:1018f000404270bd054b2a681b689b1aa342edda73
:10190000f5e7c046f4830020fc830020f883002024
:020000040000fa
:020000040004f6
:1019100037b56b46dd1d836a0400297063b16369c6
:10192000a26a93420fd3012229002000e36a98475c
:10193000012805d1287805e000f05afb0028eed0f8
:10194000012040423ebd220034321278287852b243
:0c1950009042e8d05a1c62611870f3e766
:020000040000fa
:020000040004f6
:10195c0048f20023c2f2000310221a721a752021d9
:10196c00022058540c315a540c315a540c315a54dc
:10197c000c315a540c315a540c315a540c315a54af
:10198c000c315a540c315a540c315a540c315a549f
:0a199c000c315a540c315a547047b4
:020000040000fa
:020000040004f6
:1019a60010b548f22443c2f200031b6818680021f0
:1019b60000f0a1fb48f20853c2f200031b68186846
:1019c600002100f098fbfff750fffff7ebfd00f05a
:1019d60000fafff7b7fdfff750fdfff7bcff00f079
:0419e60084f810bdb4
:020000040000fa
:020000040004f6
:1019ea0070b5d0b1d9b1002541f20002c4f200228b
:1019fa000124072605e06b00c35a93620135a94208
:101a0a0009d0137e2342fcd053683340012bf2d015
:101a1a00435d9362f2e7012070bd0020fce70120dc
:021a2a00fae7d9
:020000040000fa
:020000040004f6
:101a2c00030010b51a78202a0ad0110009390429ac
:101a3c0006d92b2a06d000212d2a05d1012102e03e
:101a4c000133efe70021013300200a2402e0604358
:101a5c000133801a1a78303a092af8d901b9404270
:021a6c0010bdab
:020000040000fa
:020000040004f6
:021a6e00fee791
:020000040000fa
:020000040004f6
:101a700010b5054c237833b9044b13b1044800e08a
:101a800000bf0123237010bd9883002000000000d8
:101a900000000000034b10b51bb10349034800e0f0
:101aa00000bf10bd000000009c830020000000006b
:020000040000fa
:020000040004f6
:101ab000002b11d1002a0fd1002900d1002802d01b
:101ac0000021c943080007b4024802a1401802904f
:101ad00003bdc0469906000003b4684601b50298ec
:101ae000fef7d6fc019b9e4602b00cbc7047c04678
:020000040000fa
:020000040004f6
:101af0004ef20013cef2000340f204315a580a4865
:101b000002404cf2000002435a5020221a6040f278
:101b10000c301a581202120ac02109060a431a5040
:0c1b200048f200021a607047ff00ffff4f
:020000040000fa
:020000040004f6
:101b2c000b004968020010b5890603d4190000f0b7
:101b3c0087f810bd190034310978c0b249b281421e
:101b4c0007d059699c6aa14203d24c1c5c610a7093
:0c1b5c00efe711001800fff7d5feeae7e4
:020000040000fa
:020000040004f6
:101b68001c2101231b04984201d3000c10391b0ac5
:101b7800984201d3000a08391b09984201d3000989
:101b8800043902a2105c40187047c04604030202e0
:0c1b98000101010100000000000000003d
:020000040000fa
:020000040004f6
:101ba400436870b50400d80511d52569954200d95c
:101bb40015005db12a00606900f06efa226963695c
:101bc400521b226100225b1963611a7070bddb062f
:0a1bd400fcd4200000f07efaf8e7d0
:020000040000fa
:020000040004f6
:101bde0041f20003c4f200235b8b5b0713d041f28a
:101bee000003c4f2002380221a76793a5a831b7eb0
:101bfe005b0708d541f20003c4f2002304219a6a60
:081c0e001a7e0a42fbd1704767
:020000040000fa
:020000040004f6
:101c160010b50400812906dc00207f2912dd136837
:101c26000721073305e0002083290bd113687c398f
:101c360007338b4319000120083111601a685b686d
:061c46002260636010bd86
:020000040000fa
:020000040004f6
:101c4c0013b503006a460800d9b2d1714268d205b7
:101c5c0005d54269541c44611170d8b216bd6b464f
:101c6c000122d91d00f032fa10b16b46d879f5e794
:061c7c0001204042f2e7e6
:020000040000fa
:020000040004f6
:101c820030b543001b189b0048f20024c2f2000446
:101c9200a44663441b7a834200d030bd48f200243c
:101ca200c2f2000443001d18ad0029512b00634409
:041cb2005a60f2e79b
:020000040000fa
:020000040004f6
:021cb600704775
:020000040000fa
:020000040004f6
:101cb80010b50a48016821b9436813b900f0b1f8b2
:101cc80010bd04008368064a9bb20c349b009b58e5
:101cd80042682000984780002018ebe7780a040043
:041ce8007420040060
:020000040000fa
:020000040004f6
:101cec000200002030b50a4943005c5c14b95b1853
:101cfc00587830bd116801300d78c0b2a54204d1be
:101d0c00034801311b18587811600a28ebd9f0e709
:041d1c00202004007f
:020000040000fa
:020000040004f6
:101d2000064b1a680ab9064a1a60064a116809b9c8
:101d3000054911601a68054b1a607047fc83002042
:101d400018850020f883002018870020f4830020e5
:020000040000fa
:020000040004f6
:101d500010b548f2e833c2f2000358684ef20002b0
:101d6000cef2000212699a6801329a601b682bb1a8
:0e1d700048f2e833c2f200031b68984710bd2a
:020000040000fa
:020000040004f6
:101d7e0001000022030048318a56501e02430a70a9
:101d8e005968042208001040114205d001200c327f
:0e1d9e000a435a60404270471864d863fbe75e
:020000040000fa
:020000040004f6
:101dac00f8b5070018000b00160014005a1e9341da
:101dbc004e430d005b42320039001c4000f086f9a6
:0c1dcc00864201d0b0fbf5f42000f8bd09
:020000040000fa
:020000040004f6
:101dd8004ef20003cef2000300221a619a6143f624
:101de800ff51c0f2490159610621196148f2e833ef
:0a1df800c2f200039a601a607047ff
:020000040000fa
:020000040004f6
:101e020010b542f60003c4f2000304225a6148f2fc
:101e12000023c2f200039a692ab148f20023c2f2f7
:081e22000003d869904710bdd0
:020000040000fa
:020000040004f6
:021e2a007047ff
:020000040000fa
:020000040004f6
:101e2c0010b5084c2368196800f045f80123002808
:101e3c0005db23680a20196800f07af9c30f5842b1
:081e4c0010bdc046088500200e
:020000040000fa
:020000040004f6
:101e5400f7b5002516000c002f000190b74201dbf6
:101e64002800febd62682168019800f079f8013706
:061e74002d180834f2e70e
:020000040000fa
:020000040004f6
:101e7a00f7b5002516000c002f000190b74201dbd0
:101e8a002800febd62682168019800f084f80137d5
:061e9a002d180834f2e7e8
:020000040000fa
:020000040004f6
:101ea00043f60003c4f200231a7e02210a431a7685
:101eb00043f60002c4f200224902138c0b42fcd10b
:021ec000704769
:020000040000fa
:020000040004f6
:101ec20070b50e00050000f09ef833000400020019
:101ed20001212800fff769ff001b431e9841404281
:021ee20070bdd1
:020000040000fa
:020000040004f6
:101ee40043f60003c4f200231a7802210a431a704d
:101ef40043f60002c4f20022138c0b42fcd170475b
:020000040000fa
:020000040004f6
:101f040042f60003c4f200231a6802210a431a604d
:101f140042f60002c4f2002293681942fcd17047d1
:020000040000fa
:020000040004f6
:101f24000fb407b5054b04aa1b6802ca18680192ce
:101f340000f050f803b008bc04b01847088500202e
:020000040000fa
:020000040004f6
:101f440010b5054c23680bb9fff7e8fe034b18687e
:101f54002368c01a10bdc046f4830020f883002013
:020000040000fa
:020000040004f6
:101f640010b503000c00002043b9180032b1012160
:0e1f74002000fff7fbfb0028f9d0012010bd74
:020000040000fa
:020000040004f6
:101f8200002310b5934206d103201840421e90410f
:0e1f92009b08c01810bdc45ccc540133f2e7ac
:020000040000fa
:020000040004f6
:101fa00070b50d001400012801d0200070bd210083
:0c1fb0002800fff71afd0028f9d0f6e722
:020000040000fa
:020000040004f6
:101fbc00054a10b51468030000201cb913601861a1
:0c1fcc001960013010bdc04618840020d0
:020000040000fa
:020000040004f6
:101fd80013b50400019201aafef7d0f86368db0686
:081fe80001d50120404216bda5
:020000040000fa
:020000040004f6
:101ff00010b50400fff7c3fe28b9a368e268a36127
:0820000063619b18a36210bd8f
:020000040000fa
:020000040004f6
:10200800037833b103005a780133002afbd1181a38
:0820180070470020fce7c04600
:020000040000fa
:020000040004f6
:1020200068076c094c836a9074a07ac00080688845
:0620300000846c820081b7
:020000040000fa
:020000040004f6
:10203600006810b5002801da002010bdfff73dfc4e
:06204600431cfad1f8e78b
:020000040000fa
:020000040004f6
:10204c00012800d0704748f21e43c2f2000301225f
:04205c001a70f7e718
:020000040000fa
:020000040004f6
:10206000000148f2b433c2f200039c466044416070
:0420700082607047d3
:020000040000fa
:020000040004f6
:10207400eb200400831f04005321040053210400b7
:0420840053210400e0
:020000040000fa
:020000040004f6
:1020880010b500f05bf8024b1860586010bdc046f0
:0420980000840020a0
:020000040000fa
:020000040004f6
:10209c0010b52ab10023cc5cc45401339342fad15d
:0420ac0010bdc0465d
:020000040000fa
:020000040004f6
:1020b00032b10300c9b21218197001339342fbd137
:0420c0007047c0465f
:020000040000fa
:020000040004f6
:1020c40002b4714649084900095c49008e4402bcc7
:0420d4007047c0464b
:020000040000fa
:020000040004f6
:1020d800c36a10b50bb1984710bd0068fff75cffe5
:0220e800fae715
:020000040000fa
:020000040004f6
:1020ea008a18914201d10020704700230b700131f8
:0220fa00f7e706
:020000040000fa
:020000040004f6
:1020fc004a424a4110b580235200fff7dbfa10bd6b
:020000040000fa
:020000040004f6
:10210c0010b5fff7bbff00f02df800f02bf810bd59
:020000040000fa
:020000040004f6
:0e211c000300413b192b01d8202318437047c4
:020000040000fa
:020000040004f6
:0a212a0010b50068fff737ff10bd85
:020000040000fa
:020000040004f6
:08213400286e696c29002500ea
:020000040000fa
:020000040004f6
:08213c0010b5fff7f5fc10bd22
:020000040000fa
:020000040004f6
:08214400004870478c84002064
:020000040000fa
:020000040004f6
:06214c0001204042704733
:020000040000fa
:020000040004f6
:0421520000207047b2
:020000040000fa
:020000040004f6
:0421560000207047ae
:020000040000fa
:020000040004f6
:04215a0000207047aa
:020000040000fa
:020000040004f6
:04215e0000207047a6
:020000040000fa
:020000040004f6
:0421620000207047a2
:020000040000fa
:020000040004f6
:04216600002070479e
:020000040000fa
:020000040004f6
:02216a007047bc
:020000040000fa
:020000040004f6
:04216c007047c046b2
:020000040000fa
:020000040004f6
:022170007047b6
:020000040000fa
:020000040004f6
:022172007047b4
:00000001FF
